{
  "contractName": "Charity",
  "abi": [
    {
      "constant": true,
      "inputs": [],
      "name": "creator",
      "outputs": [
        {
          "name": "",
          "type": "address"
        }
      ],
      "payable": false,
      "stateMutability": "view",
      "type": "function"
    },
    {
      "constant": true,
      "inputs": [],
      "name": "endTime",
      "outputs": [
        {
          "name": "",
          "type": "uint256"
        }
      ],
      "payable": false,
      "stateMutability": "view",
      "type": "function"
    },
    {
      "constant": true,
      "inputs": [
        {
          "name": "",
          "type": "uint256"
        }
      ],
      "name": "votingOptionVotes",
      "outputs": [
        {
          "name": "",
          "type": "uint256"
        }
      ],
      "payable": false,
      "stateMutability": "view",
      "type": "function"
    },
    {
      "constant": true,
      "inputs": [],
      "name": "startTime",
      "outputs": [
        {
          "name": "",
          "type": "uint256"
        }
      ],
      "payable": false,
      "stateMutability": "view",
      "type": "function"
    },
    {
      "constant": true,
      "inputs": [],
      "name": "votingOptionsCount",
      "outputs": [
        {
          "name": "",
          "type": "uint256"
        }
      ],
      "payable": false,
      "stateMutability": "view",
      "type": "function"
    },
    {
      "constant": true,
      "inputs": [
        {
          "name": "",
          "type": "uint256"
        }
      ],
      "name": "votingOptionAddresses",
      "outputs": [
        {
          "name": "",
          "type": "address"
        }
      ],
      "payable": false,
      "stateMutability": "view",
      "type": "function"
    },
    {
      "constant": true,
      "inputs": [
        {
          "name": "",
          "type": "address"
        }
      ],
      "name": "donations",
      "outputs": [
        {
          "name": "",
          "type": "uint256"
        }
      ],
      "payable": false,
      "stateMutability": "view",
      "type": "function"
    },
    {
      "constant": true,
      "inputs": [
        {
          "name": "",
          "type": "uint256"
        }
      ],
      "name": "votingOptions",
      "outputs": [
        {
          "name": "",
          "type": "bytes32"
        }
      ],
      "payable": false,
      "stateMutability": "view",
      "type": "function"
    },
    {
      "inputs": [],
      "payable": false,
      "stateMutability": "nonpayable",
      "type": "constructor"
    },
    {
      "anonymous": false,
      "inputs": [
        {
          "indexed": false,
          "name": "option",
          "type": "bytes32"
        },
        {
          "indexed": false,
          "name": "optionAddress",
          "type": "address"
        }
      ],
      "name": "optionAdded",
      "type": "event"
    },
    {
      "anonymous": false,
      "inputs": [
        {
          "indexed": false,
          "name": "donor",
          "type": "address"
        },
        {
          "indexed": false,
          "name": "donationAmount",
          "type": "uint256"
        }
      ],
      "name": "donated",
      "type": "event"
    },
    {
      "constant": false,
      "inputs": [
        {
          "name": "option",
          "type": "bytes32"
        },
        {
          "name": "optionAddress",
          "type": "address"
        }
      ],
      "name": "addVoteOption",
      "outputs": [],
      "payable": false,
      "stateMutability": "nonpayable",
      "type": "function"
    },
    {
      "constant": false,
      "inputs": [
        {
          "name": "duration",
          "type": "uint256"
        }
      ],
      "name": "startVoting",
      "outputs": [],
      "payable": false,
      "stateMutability": "nonpayable",
      "type": "function"
    },
    {
      "constant": false,
      "inputs": [],
      "name": "returnDonation",
      "outputs": [],
      "payable": false,
      "stateMutability": "nonpayable",
      "type": "function"
    },
    {
      "constant": false,
      "inputs": [
        {
          "name": "option",
          "type": "uint256"
        }
      ],
      "name": "vote",
      "outputs": [],
      "payable": false,
      "stateMutability": "nonpayable",
      "type": "function"
    },
    {
      "constant": false,
      "inputs": [],
      "name": "isVotingActive",
      "outputs": [
        {
          "name": "",
          "type": "bool"
        }
      ],
      "payable": false,
      "stateMutability": "nonpayable",
      "type": "function"
    },
    {
      "constant": false,
      "inputs": [],
      "name": "disperse",
      "outputs": [
        {
          "name": "",
          "type": "bool"
        }
      ],
      "payable": false,
      "stateMutability": "nonpayable",
      "type": "function"
    },
    {
      "constant": false,
      "inputs": [],
      "name": "donate",
      "outputs": [],
      "payable": true,
      "stateMutability": "payable",
      "type": "function"
    },
    {
      "constant": true,
      "inputs": [],
      "name": "getBalance",
      "outputs": [
        {
          "name": "",
          "type": "uint256"
        }
      ],
      "payable": false,
      "stateMutability": "view",
      "type": "function"
    },
    {
      "constant": true,
      "inputs": [
        {
          "name": "index",
          "type": "uint256"
        }
      ],
      "name": "getVotingOption",
      "outputs": [
        {
          "name": "",
          "type": "bytes32"
        },
        {
          "name": "",
          "type": "address"
        },
        {
          "name": "",
          "type": "uint256"
        }
      ],
      "payable": false,
      "stateMutability": "view",
      "type": "function"
    },
    {
      "constant": true,
      "inputs": [
        {
          "name": "addr",
          "type": "address"
        }
      ],
      "name": "getAccountBalance",
      "outputs": [
        {
          "name": "",
          "type": "uint256"
        }
      ],
      "payable": false,
      "stateMutability": "view",
      "type": "function"
    }
  ],
  "bytecode": "0x608060405234801561001057600080fd5b50336000806101000a81548173ffffffffffffffffffffffffffffffffffffffff021916908373ffffffffffffffffffffffffffffffffffffffff1602179055507fffffffffffffffffffffffffffffffffffffffffffffffffffffffffffffffff6006819055507fffffffffffffffffffffffffffffffffffffffffffffffffffffffffffffffff600781905550610f18806100ae6000396000f3006080604052600436106100fc576000357c0100000000000000000000000000000000000000000000000000000000900463ffffffff1680630121b93f1461010157806302d05d3f1461012e57806312065fe0146101855780631f8a3b74146101b05780633197cbb6146102335780633d2f5bda1461025e57806347cf6f761461028b578063646ef134146102ba578063731673fa146102d157806378e979251461031257806388b6ff9c1461033d57806393423e9c1461036c5780639723de96146103c357806398fe5082146103ee578063b74c0ff31461045b578063cc6cb19a146104ac578063dff67f6b14610503578063ed88c68e1461054c575b600080fd5b34801561010d57600080fd5b5061012c60048036038101908080359060200190929190505050610556565b005b34801561013a57600080fd5b50610143610625565b604051808273ffffffffffffffffffffffffffffffffffffffff1673ffffffffffffffffffffffffffffffffffffffff16815260200191505060405180910390f35b34801561019157600080fd5b5061019a61064a565b6040518082815260200191505060405180910390f35b3480156101bc57600080fd5b506101db60048036038101908080359060200190929190505050610669565b6040518084600019166000191681526020018373ffffffffffffffffffffffffffffffffffffffff1673ffffffffffffffffffffffffffffffffffffffff168152602001828152602001935050505060405180910390f35b34801561023f57600080fd5b5061024861072b565b6040518082815260200191505060405180910390f35b34801561026a57600080fd5b5061028960048036038101908080359060200190929190505050610731565b005b34801561029757600080fd5b506102a06107d4565b604051808215151515815260200191505060405180910390f35b3480156102c657600080fd5b506102cf6107ef565b005b3480156102dd57600080fd5b506102fc60048036038101908080359060200190929190505050610905565b6040518082815260200191505060405180910390f35b34801561031e57600080fd5b50610327610928565b6040518082815260200191505060405180910390f35b34801561034957600080fd5b5061035261092e565b604051808215151515815260200191505060405180910390f35b34801561037857600080fd5b506103ad600480360381019080803573ffffffffffffffffffffffffffffffffffffffff169060200190929190505050610b14565b6040518082815260200191505060405180910390f35b3480156103cf57600080fd5b506103d8610b35565b6040518082815260200191505060405180910390f35b3480156103fa57600080fd5b5061041960048036038101908080359060200190929190505050610b3b565b604051808273ffffffffffffffffffffffffffffffffffffffff1673ffffffffffffffffffffffffffffffffffffffff16815260200191505060405180910390f35b34801561046757600080fd5b506104aa6004803603810190808035600019169060200190929190803573ffffffffffffffffffffffffffffffffffffffff169060200190929190505050610b79565b005b3480156104b857600080fd5b506104ed600480360381019080803573ffffffffffffffffffffffffffffffffffffffff169060200190929190505050610df7565b6040518082815260200191505060405180910390f35b34801561050f57600080fd5b5061052e60048036038101908080359060200190929190505050610e0f565b60405180826000191660001916815260200191505060405180910390f35b610554610e32565b005b60006105606107d4565b801561056d575060055482105b1561062157600160003373ffffffffffffffffffffffffffffffffffffffff1673ffffffffffffffffffffffffffffffffffffffff1681526020019081526020016000205490506000600160003373ffffffffffffffffffffffffffffffffffffffff1673ffffffffffffffffffffffffffffffffffffffff168152602001908152602001600020819055508060048381548110151561060957fe5b90600052602060002001600082825401925050819055505b5050565b6000809054906101000a900473ffffffffffffffffffffffffffffffffffffffff1681565b60003073ffffffffffffffffffffffffffffffffffffffff1631905090565b60008060006005548410156106f15760028481548110151561068757fe5b90600052602060002001546003858154811015156106a157fe5b9060005260206000200160009054906101000a900473ffffffffffffffffffffffffffffffffffffffff166004868154811015156106db57fe5b9060005260206000200154925092509250610724565b6000807f6e756c6c0000000000000000000000000000000000000000000000000000000091908191508090509250925092505b9193909250565b60075481565b6000809054906101000a900473ffffffffffffffffffffffffffffffffffffffff1673ffffffffffffffffffffffffffffffffffffffff163373ffffffffffffffffffffffffffffffffffffffff161480156107ae57507fffffffffffffffffffffffffffffffffffffffffffffffffffffffffffffffff600654145b80156107bb575060075442105b156107d157426006819055508042016007819055505b50565b600060065442101580156107ea57506007544211155b905090565b6000600160003373ffffffffffffffffffffffffffffffffffffffff1673ffffffffffffffffffffffffffffffffffffffff168152602001908152602001600020541115610903576000600160003373ffffffffffffffffffffffffffffffffffffffff1673ffffffffffffffffffffffffffffffffffffffff168152602001908152602001600020819055503373ffffffffffffffffffffffffffffffffffffffff166108fc600160003373ffffffffffffffffffffffffffffffffffffffff1673ffffffffffffffffffffffffffffffffffffffff168152602001908152602001600020549081150290604051600060405180830381858888f19350505050158015610901573d6000803e3d6000fd5b505b565b60048181548110151561091457fe5b906000526020600020016000915090505481565b60065481565b60008060008060075442101515610b0957600092507fffffffffffffffffffffffffffffffffffffffffffffffffffffffffffffffff9150600090505b6005548110156109e2578260048281548110151561098557fe5b906000526020600020015411156109d5578091506004818154811015156109a857fe5b9060005260206000200154925060006004828154811015156109c657fe5b90600052602060002001819055505b808060010191505061096b565b60006005819055507fffffffffffffffffffffffffffffffffffffffffffffffffffffffffffffffff6006819055507fffffffffffffffffffffffffffffffffffffffffffffffffffffffffffffffff6007819055507fffffffffffffffffffffffffffffffffffffffffffffffffffffffffffffffff821415610a695760009350610b0e565b600382815481101515610a7857fe5b9060005260206000200160009054906101000a900473ffffffffffffffffffffffffffffffffffffffff1673ffffffffffffffffffffffffffffffffffffffff166108fc3073ffffffffffffffffffffffffffffffffffffffff16319081150290604051600060405180830381858888f19350505050158015610aff573d6000803e3d6000fd5b5060019350610b0e565b600093505b50505090565b60008173ffffffffffffffffffffffffffffffffffffffff16319050919050565b60055481565b600381815481101515610b4a57fe5b906000526020600020016000915054906101000a900473ffffffffffffffffffffffffffffffffffffffff1681565b6000809054906101000a900473ffffffffffffffffffffffffffffffffffffffff1673ffffffffffffffffffffffffffffffffffffffff163373ffffffffffffffffffffffffffffffffffffffff16148015610bf657507fffffffffffffffffffffffffffffffffffffffffffffffffffffffffffffffff600654145b15610df357600554600280549050111515610cce57600280600181540180825580915050906001820390600052602060002001600080909190915090600019169055506003600090806001815401808255809150509060018203906000526020600020016000909192909190916101000a81548173ffffffffffffffffffffffffffffffffffffffff021916908373ffffffffffffffffffffffffffffffffffffffff160217905550506004600090806001815401808255809150509060018203906000526020600020016000909192909190915055505b816002600554815481101515610ce057fe5b906000526020600020018160001916905550806003600554815481101515610d0457fe5b9060005260206000200160006101000a81548173ffffffffffffffffffffffffffffffffffffffff021916908373ffffffffffffffffffffffffffffffffffffffff16021790555060006004600554815481101515610d5f57fe5b90600052602060002001819055506005600081548092919060010191905055507f1cf4ca432678d1e40a06c6d9f9ae0500c2eb7090109e7780c7e655c2a3832d0182826040518083600019166000191681526020018273ffffffffffffffffffffffffffffffffffffffff1673ffffffffffffffffffffffffffffffffffffffff1681526020019250505060405180910390a15b5050565b60016020528060005260406000206000915090505481565b600281815481101515610e1e57fe5b906000526020600020016000915090505481565b34600160003373ffffffffffffffffffffffffffffffffffffffff1673ffffffffffffffffffffffffffffffffffffffff168152602001908152602001600020600082825401925050819055507f3ceb4bd0eed17b1cc8ff27bee9c294511535fb3082d5c058a3eada19d2e8e7563334604051808373ffffffffffffffffffffffffffffffffffffffff1673ffffffffffffffffffffffffffffffffffffffff1681526020018281526020019250505060405180910390a15600a165627a7a723058209772146635b42581958dc241d5f00b7f9611f38eabccb23169b32020fc20c91e0029",
  "source": "pragma solidity ^0.4.18;\n\ncontract Charity {\n\n    address public creator;\n    mapping (address => uint) public donations;\n    bytes32[] public votingOptions;\n    address[] public votingOptionAddresses;\n    uint[] public votingOptionVotes;\n    uint public votingOptionsCount;\n    uint public startTime;\n    uint public endTime;\n\n    event optionAdded(bytes32 option, address optionAddress);\n    event donated(address donor, uint donationAmount);\n\n    // Constructor\n    function Charity() public {\n        creator = msg.sender;\n        startTime = 2**256 - 1;\n        endTime = 2**256 - 1;\n    }\n\n    // The creator can add voting options before voting starts\n    // @param option: the name of the charity being added\n    // @param address: the address of the charity's wallet\n    function addVoteOption(bytes32 option, address optionAddress) public {\n        if (msg.sender == creator && startTime == (2**256 - 1)) {\n            // TODO: Make this less susceptible to gas attacks; we need a max # of charities\n            if (votingOptions.length <= votingOptionsCount) {\n                votingOptions.push(\"\");\n                votingOptionAddresses.push(0);\n                votingOptionVotes.push(0);\n            }\n            votingOptions[votingOptionsCount] = option;\n            votingOptionAddresses[votingOptionsCount] = optionAddress;\n            votingOptionVotes[votingOptionsCount] = 0;\n            votingOptionsCount++;\n            emit optionAdded(option, optionAddress);\n        }\n    }\n\n    // Locks in the options and allows donors to start voting\n    // @param duration: time that voting will be allowed, in seconds\n    function startVoting(uint duration) public {\n        if (msg.sender == creator && startTime == 2**256 - 1 && now < endTime) {\n            startTime = now;\n            endTime = now + duration;\n        }\n    }\n\n    // If one donates money but hasn't voted, he/she can reclaim money back.\n    function returnDonation() public {\n        if (donations[msg.sender] > 0) {\n            donations[msg.sender] = 0;\n            msg.sender.transfer(donations[msg.sender]);\n        }\n    }\n\n    // Allows one to vote for one of the choices, which will be weighted; remove voter's balance\n    // @param option: the index of the option to vote for\n    function vote(uint option) public {\n        if (isVotingActive() && option < votingOptionsCount) {\n            uint temp = donations[msg.sender];\n            donations[msg.sender] = 0;\n            votingOptionVotes[option] += temp;\n        }\n    }\n\n    function isVotingActive() public returns (bool) {\n        return (now >= startTime && now <= endTime);\n    }\n\n    // Called after the current voting period ends to donate to the majority vote cause\n    function disperse() public returns (bool){\n\n        /* votingOptionAddresses[3].transfer(address(this).balance);\n        return true; */\n\n        // NOTE: Currently, there is an issue with ganache that does not allow us to zero out array indices (like in line 93)\n        // So, the actual code is commented out below, while the code to demo is commented above.\n        // The code below passes the tests, so we know it should work.\n        // Source: https://github.com/trufflesuite/ganache-cli/issues/491\n\n        // https://ethereum.stackexchange.com/questions/3373/how-to-clear-large-arrays-without-blowing-the-gas-limit\n        if (now >= endTime) {\n            uint maxVotes = 0;\n            uint maxIndex = 2**256 - 1;\n            for (uint i = 0; i < votingOptionsCount; i++) {\n                if (votingOptionVotes[i] > maxVotes) {\n                    maxIndex = i;\n                    maxVotes = votingOptionVotes[i];\n                    votingOptionVotes[i] = 0;\n                }\n            }\n            votingOptionsCount = 0;\n            startTime = 2**256 - 1;\n            endTime = 2**256 - 1;\n            if (maxIndex == 2**256 - 1) {\n                return false; //no one voted\n            } else {\n                votingOptionAddresses[maxIndex].transfer(address(this).balance);\n            }\n            return true;\n        }\n        return false;\n    }\n\n    // Allows any individual to donate ethereum to this charity\n    function donate() public payable {\n        donations[msg.sender] += msg.value;\n        emit donated(msg.sender, msg.value);\n    }\n\n    function getBalance() public constant returns (uint) {\n        return address(this).balance;\n    }\n\n    // Get which charity is at a certain index\n    // @param index: the index of the voting option\n    function getVotingOption (uint index) public constant returns (bytes32, address, uint) {\n        if (index < votingOptionsCount) {\n            return (votingOptions[index], votingOptionAddresses[index], votingOptionVotes[index]);\n        } else {\n            return (\"null\", 0, 0);\n        }\n    }\n\n    function getAccountBalance(address addr) public view returns(uint) {\n\t\t  return addr.balance;\n\t  }\n}\n",
  "sourcePath": "/Users/mingze/Documents/GitHub/Blockchains-Project/contracts/Charity.sol",
  "compiler": {
    "name": "solc",
    "version": "0.4.26+commit.4563c3fc.Emscripten.clang"
  },
  "schemaVersion": "3.3.4",
  "updatedAt": "2021-03-20T09:29:03.715Z",
  "networkType": "ethereum",
  "devdoc": {
    "methods": {}
  },
  "userdoc": {
    "methods": {}
  }
}